:1000000000220020A9160000A5160000A516000079
:1000100000000000000000000000000000000000E0
:10002000000000000000000000000000A516000015
:100030000000000000000000A5160000A51600004A
:10004000A5160000A516000001020000A51600007C
:10005000A5160000A9020000A5160000A5160000C4
:10006000850300001109000021090000310900008A
:10007000410900005109000061090000A5160000B7
:10008000A51600005503000065030000750300007D
:10009000A5160000A5160000A5160000A516000074
:1000A000A5160000E1010000F1010000A516000006
:1000B000A5160000A5160000A516000010B5064CF8
:1000C0002378002B07D1054B002B02D0044800E019
:1000D00000BF0123237010BD7C0000200000000041
:1000E0008C2F0000084B10B5002B03D0074908489F
:1000F00000E000BF07480368002B00D110BD064B8D
:10010000002BFBD09847F9E700000000800000209A
:100110008C2F00008C2F00000000000070B58000C4
:100120002E4BC45823689D79EDB2EA072DD5E27EA7
:10013000D2072AD5A27ED20727D501229A716269F9
:10014000931C636123689B8C9BB21380238B013BC0
:100150009BB22383002B15D0637F002B15D0226820
:10016000D3795BB2002B10DB138C9BB2002BFBD13D
:10017000137E02210B4313762268138C9BB2002B53
:10018000FBD102E0237F052B16D06B0708D5042393
:1001900022689371E37E9B0702D5A37E9B0714D44C
:1001A000AB0708D5022322689371E37E5B0702D573
:1001B000A37E5B070DD470BD002323770133226833
:1001C00013712000A3689847DFE72000E368984791
:1001D000E6E7236920009847EDE7C046A801002024
:1001E00010B50020014B984710BDC0461D0100000E
:1001F00010B50120014B984710BDC0461D010000FD
:10020000F8B5DE4657464E464546E0B5244B1B68DA
:100210009A461E685B8E5246128E1A409046B289EC
:10022000738913401AB2002A08DBFF271F402AD027
:10023000002401239946FE339B4614E043469B0568
:1002400007D4184BB3813CBC90469946A246AB46B6
:10025000F8BD5346DB6A9847F3E75B461D40B5811E
:100260000134082CEFD023004D46A5402F42F4D096
:100270004246224149461142EFD002339B0052468A
:100280009B589847E9E7DB05DDD54346DB0503D4FA
:1002900080235B00B381D6E753469B6A9847F7E714
:1002A000B00100200080FFFFF0B5C64600B5144B3A
:1002B0001F68144B9E79F6B2DB681A0202D5FF2242
:1002C000120613433A695B421360002401250D4B6B
:1002D000984602E00134042C0FD0E0B23300E34032
:1002E0001D42F7D02B00A340DBB242469371A3001E
:1002F000FB58002BEED09847ECE704BC9046F0BDCD
:10030000B401002000300040F0B5C64600B58000C2
:100310000E4BC7583B68DE6ABB6B7A6B13401E40BE
:1003200000240B4B984602E00434302C0AD043469C
:10033000E5583542F8D03B195B68380098473B6870
:10034000DD62F1E704BC9046F0BDC046B801002074
:100350003C2E000010B50020014B984710BDC04650
:100360000903000010B50120014B984710BDC0469D
:100370000903000010B50220014B984710BDC0468C
:100380000903000010B50C4B1C698421C9058A695A
:10039000986802439A60094B8B61002C05D0206855
:1003A00063689847A468002CF9D1034BD9689A6810
:1003B0008A439A6010BDC04600000020FF0FFF0F67
:1003C0000649CB6901221343CB618423DB051A70F4
:1003D00019000B781342FCD17047C046000800405A
:1003E0000C4B1B68002B06D1EFF31083002B07D0BA
:1003F0000022094B1A70074A1368013313607047D3
:1004000072B6BFF35F8F0022044B1A700132024BA9
:100410001A70F0E7980000209C00002014000020D3
:10042000084B1A68013A1A601B68002B09D1064B69
:100430001B78002B05D00122044B1A70BFF35F8F8D
:1004400062B67047980000209C0000201400002035
:10045000F0B583B001AC012565700027A770257049
:1004600021000F20064EB047802212028223DB05B6
:100470009A612770657021001C20B04703B0F0BD61
:100480008504000000B583B001AB80221A700A78A1
:100490005A704A789A708A78DA701900014B984736
:1004A00003B000BD4916000010B5490840230024E0
:1004B000814202D2180010BD1C00091A631C9BB2B5
:1004C0008842F9D94023FF2CF4D814800023F1E7A7
:1004D000F0B5DE4657464E464546E0B589B00C00BD
:1004E000059212AA117805004D434022A54207D972
:1004F000100009B03CBC90469946A246AB46F0BD00
:10050000002B55D1020008000021634DA847834607
:1005100026000027002300240093019400220023DA
:100520003F2020218C461F390296039714E0644631
:10053000241A0D00E540A84615E0029C039D121BFD
:10054000AB414D46009E019F35433C004646344337
:100550000095019401381DD3202464420419E6D487
:100560000D00A540A8460C008440A14692185B41AE
:1005700014001D0046465F463E4203D00E0026434F
:1005800032002B00029C039D9D42E3D8D5D19442BA
:10059000E0D8D2E70022012300980199121A8B417A
:1005A0001900130C0A041A43059B1A8000229FE7C6
:1005B0000022012BF8D1630F0493E30098460A0050
:1005C00000230021344CA04704000D0000239C466A
:1005D000069320339B4601266346079348E059461D
:1005E000C91B3000C840824610E000980199121AD9
:1005F0008B410299484601430291013F25D32021B6
:1006000049427918EBD43000884082463100B94025
:10061000894692185B411000190044464D462C4013
:10062000A4465446049D2C40A246644655462C439D
:1006300003D03400044322000B0000980199994232
:10064000DBD8D2D19042D8D8CFE7009C019D029947
:10065000079A8B1ADB0811498B4214D9069B013388
:10066000DBB219000693130001330793082908D061
:1006700000230293002200233F21009401950F00E4
:10068000BDE7402234E740220699082900D12FE730
:100690004A031A4388E7C046E51C0000FF1F00001C
:1006A00010B582B004000E4B1B78002B07D0002938
:1006B00005D10B4B5B78834210D01D200CE001A9C3
:1006C0000C701220074B98471220074B9847044B99
:1006D0005C7001221A70002002B010BD0020FBE700
:1006E000A00000204D150000DD140000404B984292
:1006F00031D00AD93F4B98424DD03F4B98425AD007
:100700003E4B984237D0002070473D4B98420CD06A
:100710003C4B9842F7D1012917D000295DD002291E
:1007200015D0032915D00020EEE7012907D00029B4
:1007300051D0022905D0032905D00020E4E7324832
:10074000E2E73248E0E73248DEE73248DCE73248A9
:10075000DAE73248D8E7012907D000293FD002293B
:1007600005D0032905D00020CEE72D48CCE72D4841
:10077000CAE72D48C8E7012907D0002931D002294E
:1007800005D0032905D00020BEE72848BCE728484B
:10079000BAE72848B8E7012907D0002923D0022961
:1007A00005D0032905D00020AEE72348ACE7234855
:1007B000AAE72348A8E7012907D0002915D0022974
:1007C00005D0032905D000209EE71E489CE71E485F
:1007D0009AE71E4898E71E4896E71E4894E71E4889
:1007E00092E71E4890E71E488EE71E488CE7C046F9
:1007F000000C0042001400420018004200100042A9
:100800000004004200080042030005000300060047
:100810000300070002001100020012000200130092
:1008200002000D0002000E0002000F00020017007F
:1008300002001800020019000300290003002A002A
:1008400003002B000300230003002000030021000D
:10085000030004000200100002000C000200160059
:10086000030028000300220030B587B00B4B6A4616
:1008700032CB32C232CB32C2009B83420BD0012337
:100880009A0069465258824206D00133062BF7D1AE
:10089000002007B030BD0023D8B2FAE76C2E00006C
:1008A00070470000F0B50A4B1B78002B0CD1094FA4
:1008B000094E0A4D0024DE515A1914600433182BD6
:1008C000F9D10122024B1A708000024BC150F0BDD9
:1008D000A2000020A4000020A1080000C401002004
:1008E00000B583B009236A46137001335370013396
:1008F00093700133D3700133137101335371034B80
:1009000098476B46185603B000BDC0466908000002
:1009100010B5024B1B680020984710BDA4000020B2
:1009200010B5024B5B680120984710BDA400002061
:1009300010B5024B9B680220984710BDA400002010
:1009400010B5024BDB680320984710BDA4000020BF
:1009500010B5024B1B690420984710BDA40000206D
:1009600010B5024B5B690520984710BDA40000201C
:10097000F0B5DE4657464E464546E0B591B0050017
:100980000C00160029600800D44B984705280DD0AC
:100990000700133722680523D20709D5180011B0C4
:1009A0003CBC90469946A246AB46F0BD1927F1E7FC
:1009B000226817339207F1D4C94AD16901301B3B31
:1009C00083400B43D3610FA935239846F35C0B702A
:1009D000FFB23800C34B98473800C34B9847434693
:1009E000F05C0021C14B9847F37A6B712C23F35CC8
:1009F000AB712D23F35CEB71F37E2B722423F35C3C
:100A00006B722B6802931800B44B98471330002286
:100A10000E2306A98C4663441A80338A98468023A5
:100A2000DB01984500D1C3E00ED9C023DB01984516
:100A300000D1B8E080231B02984500D048E1032391
:100A400006930023079308E080239B01984500D07C
:100A50003EE1102306930F3B079333680593F36839
:100A60009B4673690393337E04932E23F35C9A466B
:100A700073689946002B00D1C7E080235B05994538
:100A800000D1AAE0737E002B02D0B37E029A93734A
:100A90002A68029FD369002BFCD102970E3306A966
:100AA0008C4663441B88BB81059A5B461A43039BB3
:100AB0001A434B461A4343461A43049B1B021A43EC
:100AC00053465B071A432F23F35C002B01D10433F9
:100AD0001A43737E9B022421715C49020B43262139
:100AE000715C09020B432C21715C49040B432D21DD
:100AF000715C09040B43F17A19438C463389FF2B4F
:100B000000D1A8E0802149040A43614619438C467C
:100B1000029FBB68318C708C014307201840014351
:100B2000B960F369002B02D071490A401A4334239B
:100B3000F35C002B03D16F4B9B789B0701D580237F
:100B40001A432968029FCB69002BFCD163467B6066
:100B50002968CB69002BFCD13A603B68F022120572
:100B60001340E022D20493420AD0BB680722934389
:100B7000BB60BA682523F15C1E3B0B401343BB608E
:100B80000EAB80221A7000225A70DA709A70B36B22
:100B90000A93F36B0B93336C0C93736C02930D936A
:100BA00000270AAE66E008230693073B079354E745
:100BB00033680593F3689B4673690393337E04930C
:100BC0002E23F35C9A4673689946002B19D0802334
:100BD0005B05994501D0002327E02F23F35C002B10
:100BE00000D04FE7B36A1F00C0B2434B98470100E3
:100BF0000E2206AB9C4662443800404B98470300E7
:100C000013E008230693002307932F23F35C002BA4
:100C10000FD0069B0093079B0E2206A98C466244C8
:100C2000316BB06A364FB8470300002B00D0B5E6F1
:100C300028E7B36A1F00C0B22F4B98470100069BFC
:100C40000093079B0E2206A88446624438002C4F6E
:100C5000B8470300E9E7F37E002B00D158E7802373
:100C6000DB041A4354E72000264B984707E001377E
:100C7000042F0DD0F9B2BB0098590028F3D0431CC3
:100C8000F5D00EA90870000CC0B21F4B9847EEE7D4
:100C90000023EB602B616B61AB61EB612B62AB629C
:100CA0006B620022EB85AB853033EA540133EA54A2
:100CB0000133EA540133EA542868084B984704008A
:100CC0001249134B9847A400124BE550002365E6E8
:100CD0001023069300230793BFE6C046690800006F
:100CE000000800404D150000DD140000A1060000C2
:100CF000FFFFFFF00020004171150000A904000073
:100D0000D1040000ED060000491600003D0E000071
:100D1000A5080000C4010020C2791C23002A01D1CB
:100D200018007047C28D92B2173B002AF8D10368B1
:100D3000DA69002AFCD1198502211A7E0A42FCD008
:100D40000023EDE782791C23002A01D118007047A7
:100D5000828D92B2173B002AF8D10268107E4007BC
:100D6000F4D5D369002BFCD1538BDBB258061DD0D0
:100D7000980703D5022353831833E7E7580703D5B1
:100D8000042353831A33E1E7D80703D501235383A0
:100D90001233DBE7D80603D5102353833233D5E76C
:100DA0009B0603D5202353832133CFE7138D0B807C
:100DB0000023CBE7F8B504000D00160007680F4BC1
:100DC0009847A38D9BB2002B03D00D4B984705206D
:100DD000F8BDA6850A4B9847656205223223E25486
:100DE0002E3BBB75237A002B01D02023BB75637A81
:100DF0000020002BECD00823BB75E9E7E1030000DD
:100E000021040000931C9B00C3185960302101236A
:100E100093401A00435C13434354704710B51723A3
:100E2000002A01D1180010BD84790533002CF9D0B7
:100E3000014B98470300F5E7B50D0000F8B58000B9
:100E4000644BC5582C68E369002BFCD1237EA67D3A
:100E50001E403023EB5C3122AF5C1F40F30722D5EC
:100E6000EB8D9BB2002B1CD0AA6A1378DBB2511C0D
:100E7000A962697901290ED09BB2DB05DB0D2385C0
:100E8000EB8D013B9BB2EB85002B0CD1013323751D
:100E90000133A37507E0517809020B430232AA62BD
:100EA000EBE701232375B30706D502232375002240
:100EB0003133EA54FB071ED4730768D5AB8D9BB260
:100EC000002B62D0638BDBB21A0718D47F22134049
:100ED0005A0601D540229343002B33D09A0711D5EF
:100EE0001A223223EA54303B63837B074FD5280014
:100EF0006B6998474BE02800EB689847DCE777225E
:100F00001340E5E75A0705D51E223223EA542E3B4B
:100F10006383EAE7DA0705D513223223EA54313B2B
:100F20006383E2E7DA0605D542223223EA54223B04
:100F30006383DAE79B06D8D541223223EA54123B79
:100F40006383D2E7238DDB05DB0DDAB2696A0A70B1
:100F50006A6A511C69626979012910D0AB8D013B25
:100F60009BB2AB85002B12D10433237500222E33A4
:100F7000EA54BB070BD528002B69984707E01B0AEA
:100F800053706B6A01336B62E8E704232375F30641
:100F900004D5102323752376FB060ED4B30604D59F
:100FA0002023237523763B070BD4330704D508236E
:100FB00023752376BB0608D4F8BD2800EB69984753
:100FC000ECE72800AB699847EFE72B6A28009847C1
:100FD000F2E7C046C401002010B5072803D88000FE
:100FE0000F4B1B589F46002018E00E4B586815E029
:100FF0000D4B597D0907090F01310C480C4B9847DF
:101000000CE0084B986809E0074B1B7F00209B070A
:1010100004D5044B186801E08020000210BDC046D2
:10102000842E0000BC00002000100040006CDC0298
:10103000CD1B0000F0B5DE4657464E464546E0B5AE
:10104000254A938A457801784C424C41A1468178E3
:101050008C46C1788846467A077A817A8B461F4942
:1010600044688C60C17A8900847B64002143447B9E
:101070002143C9B29175017BD17501214846800099
:101080000424A343034340460840C0000434A34360
:1010900003436046084000010834A34303430F4064
:1010A000BF01402083433B430E40F6014030834361
:1010B0003343793805402D02094803402B435846F5
:1010C00001400903074803400B4393823CBC904610
:1010D0009946A246AB46F0BD00140040BC0000207B
:1010E000FFF8FFFFFFEFFFFF70B50400C368027D4C
:1010F000012A4ED0A26810011900294B98470F22EF
:10110000024003092178C9016578AD012943C9B2BC
:10111000244D29771104013B1B051B0D0B432B624A
:101120002E002C250421735D0B42FCD1A3781B03F8
:10113000E178C9000B43217989000B43A17C032589
:1011400029400B43218A0904174E31400B43E17CAF
:101150000902E026F60031400B43267D360130219E
:1011600031400B430F494B62637D1D402823CD5412
:101170000E002C250821735D0B42FCD10F239843F0
:101180008218E3685A43637D0433DA40074B1A60E0
:1011900070BD018A1800024B98470300AAE7C046B9
:1011A000CD1B0000001000400000FF07BC00002025
:1011B000072803D88000184B1B589F46172029E0AA
:1011C000164A137D02210B431375002022E0144AB6
:1011D000936902210B43936100201BE00F4A138A9D
:1011E00002210B431382002014E00D4A938A02214E
:1011F0000B43938200200DE0084A137F02210B432A
:10120000137710002A310222435C1342FCD10020E4
:1012100000E000207047C046A42E000000100040EF
:1012200000140040F0B5C64600B58EB003223F4B17
:101230009A603F4A53681E218B4318390B43536011
:101240000AA80023037080221202426083700122E8
:10125000C2708372C3720373437383730239417024
:1012600043720272334B98470520334B98473349FA
:101270000122CB681A42FCD0314B1A7D80210A43EF
:101280001A7502225A751A009369002BFCD12D4B56
:10129000984701AD0126029600246C706C720523FC
:1012A0002B702E7229000120274B98469847012069
:1012B000264FB8476E606C702C726C7207232B70CF
:1012C00029000820C0470820B84704A88470C470CB
:1012D00004711F4B836006824475C4748474047067
:1012E0000123437004751B4BC3601B4B98470720B9
:1012F000114B9847124830210322435C1340032BC3
:10130000FBD1023B154A137101A94B6000224A70C0
:101310004A7207320A700B7200200B4B984700206C
:101320000A4B98470EB004BC9046F0BD0018004030
:101330000040004135100000B111000000140040D1
:1013400000100040611300008513000031140000FC
:10135000006CDC02FF7F0000E91000000008004084
:10136000064A536980210B4353610122044B1A70D2
:1013700019000B781342FCD17047C04600080040AA
:10138000001C004070B504000D784B78002B02D093
:101390008023DB001D434B7A002B02D080231B01EE
:1013A0001D43486801280FD9431E184231D1022835
:1013B0002DD90223002201325B009842FBD8802302
:1013C0005B011D43120415430B7A002B02D08023CE
:1013D0009B011D430426A6401149124A4B68134045
:1013E0001E42FBD1104B9847A4000D4B9C46644411
:1013F000226A80235B001A402A4322626146094A1E
:101400004B6813401E42FBD1084B984770BD002229
:10141000D5E7000480239B0018430543D4E7C0466A
:10142000001C0040FC070000E10300002104000054
:1014300010B504000422824009480A4943680B4061
:101440001A42FBD1084B9847A400054B9C466444C4
:10145000226A80235B0013432362044B984710BD2C
:10146000001C0040FC070000E10300002104000014
:10147000F8B50400042282401248134943680B4027
:101480001A42FBD1114B98470E4F0834A400E05983
:101490004007400F0E4B98470600E559ED04ED0F4D
:1014A000E459240C0B4B9847002D07D1012C07D988
:1014B00021003000084B9847060001E00134E64067
:1014C0003000F8BD001C0040FC070000E1030000F4
:1014D000D90F000021040000CD1B000010B504004E
:1014E000094B9847A000094B9C46604480228358D2
:1014F00040210B4383504031403A43581A42FCD0BC
:10150000034B984710BDC046E1030000001C00409B
:101510002104000010B50400094B9847A000094BB6
:101520009C4660448022835840218B438350403145
:10153000403A43581A42FCD1034B984710BDC0466D
:10154000E1030000001C00402104000070B504000D
:101550000D00054B98472A780F2313402034A40030
:10156000024AA35070BDC04615150000001C004083
:1015700010B50400064B98472034A400054BE458EE
:101580002407240F044B98472000044B984710BDB4
:10159000E1030000001C0040210400007114000061
:1015A00030B5D378002B35D11378802B29D01B068A
:1015B00080246402234354780225AC4306D19478F6
:1015C000002C20D18024A402234341605478013CA4
:1015D000012C1CD90D042D0CA024E4052C431C4324
:1015E00084620D0CD02424062C431C438462D478DE
:1015F000002C22D15B031CD59378012B1ED04161B6
:1016000017E00023D7E7C024E4022343DDE70D4CB5
:101610002340DFE741600C04240CA023DB052343B7
:1016200083620C0CD0231B0623438362D378002BE8
:1016300003D15378013B012B02D930BD8161F8E71A
:101640008160FAE7FFFFFBFF10B50A00C109002324
:10165000002905D14309DB018221C9058C46634479
:101660001F242040012181401800014B984710BDE4
:10167000A11500007047000010B5054B9847054BB9
:101680009847054B9847054B9847054B984710BD21
:101690002512000051040000C1030000751600006F
:1016A00075160000FEE7000010B5174A174B9A4266
:1016B00011D01A00164B9A420DD2164A03339B1AC8
:1016C0009B0801339B00002210480F498C5884501E
:1016D00004329A42FAD1104A104B9A420AD2D343AA
:1016E0000E495B1803218B4304339B18002102C26F
:1016F0009342FCD10A4AFF210A4B8B4393600A4B69
:1017000098470A4B9847FEE78C2F00000000002006
:101710007C000020040000207C000020000200204B
:1017200000ED00E000000000391D0000751A000007
:10173000F0B5C64600B50C00904600280FD1002A2F
:1017400011DD8F18094E0A4D306821002B6898472B
:101750000134BC42F8D1404604BC9046F0BD0123A0
:101760005B429846F7E78046F5E7C046E401002073
:10177000DC010020F0B5C64600B50E0015000138AA
:10178000022810D8002A11D000240C4B98460C4F88
:1017900043461868315D3B689847002808DB0134F0
:1017A000A542F5D106E00124644203E0140001E003
:1017B00001246442200004BC9046F0BDE4010020F6
:1017C000E00100200300064A1268002A04D0044AFF
:1017D0001068C318136070470249014A1160F6E7A8
:1017E000C8000020002200200120404270478023D2
:1017F0009B014B600020704701207047002070471C
:101800007047000070B582B005000E0000226B46E4
:10181000DA80064C6B46991D2800A0470028F9D1B4
:101820006B4606331B88337002B070BD450D000057
:1018300070B505008CB2034E21002800B047002887
:10184000FAD170BD190D000010B514220021024814
:10185000024B984710BDC046E8010020811D0000E2
:1018600010B5642200210248024B984710BDC046C3
:1018700008010020811D0000F8B5DE46474680B50E
:1018800000272D4B9B462D4B984615E02C4B1B7883
:10189000082B19D801222B4B1A7000252A4B1D70DA
:1018A0002A4B9847264B1D700EE0274B1B78012BC7
:1018B00021D00137142F39D05B46DC5DE4B2210022
:1018C0002348C047682CE1D01E4B1B78002BECD07E
:1018D0001B490A78531CDBB20B701E498C54162C22
:1018E000E3D1002217490A700120174908701A49EC
:1018F0000B70134B1A701948194B9847164B1B78ED
:10190000002B0ADD0024134E0C4DA15D1548A8479D
:101910000134114B1B78A342F7DC1048104B984759
:101920000022094B1A70094B9847C2E70E4B9847A3
:101930000CBC90469B46F8BDE8010020911D0000BC
:10194000CC000020060100200501002061180000E5
:10195000C42E00000801002004010020CC2E00004D
:10196000851E0000D02E00004918000070B5084CFC
:10197000002208492000084DA847012207492000FD
:10198000A8473122A35C03210B43A35470BDC0467A
:101990006C01002001180000050E000079180000FD
:1019A00030B593B08023DB05009300230193FF2221
:1019B00069460A818B72CB7201222C2168464254FF
:1019C000013142542D328354013283540C93053239
:1019D000835401328354059300220382C276079315
:1019E0000384438402762423C254427613238376ED
:1019F0001333C254013BC2549623DB010A93802364
:101A00005B030393134B0E93134B0F9301235B4222
:101A100010931193114D124C6A4612492800A047A9
:101A20000028F9D10D4D2C6820000F4B98471F233B
:101A300018401E3B83400D4A13602A68D369002B6F
:101A4000FCD12368022213432360094B984713B04B
:101A500030BDC04602001600020017006C010020D5
:101A60007109000000100042E108000000E100E000
:101A70006D190000F0B593B03F4B984701243F4BE0
:101A80001C70BFF35F8F62B68023DB0500930023D9
:101A90000193FF2269460A818B72CB7296229201D2
:101AA0000A922C228C5401328C5401328B54013214
:101AB0008B540C9305328B5401328B5405930022C6
:101AC0000B82CA7607930B844B840A762423CA546C
:101AD0004A7613238B761333CA54013BCA54C4236A
:101AE0009B03039301235B420E930F93244B1093AC
:101AF000244B1193244D254B1D60254A254B1A601C
:101B0000254A264B1A606A4625492800254B9847E6
:101B1000254F3B6898680021244EB0473B685868C1
:101B20000021B0472E683000214B98471F231840F2
:101B30008440204B1C602B68DA69002AFCD1336892
:101B40000232134333601C4B98471C4E1C4D1D4CF6
:101B500009E0802212028223DB055A611422290047
:101B60002000194B98473378002BF2D080221202C4
:101B70008223DB059A61F1E779160000140000204A
:101B800003002A0003002B00D0000020E401002005
:101B900031180000E001002005180000DC010020E1
:101BA000001400427109000018000020991E000076
:101BB000E108000000E100E0A1190000050100209B
:101BC000E80100206C0100201D0E000000224308E7
:101BD0008B4274D303098B425FD3030A8B4244D3F5
:101BE000030B8B4228D3030C8B420DD3FF22090237
:101BF00012BA030C8B4202D31212090265D0030BF6
:101C00008B4219D300E0090AC30B8B4201D3CB03EB
:101C1000C01A5241830B8B4201D38B03C01A52412D
:101C2000430B8B4201D34B03C01A5241030B8B422F
:101C300001D30B03C01A5241C30A8B4201D3CB021A
:101C4000C01A5241830A8B4201D38B02C01A5241FF
:101C5000430A8B4201D34B02C01A5241030A8B4202
:101C600001D30B02C01A5241CDD2C3098B4201D31A
:101C7000CB01C01A524183098B4201D38B01C01A98
:101C8000524143098B4201D34B01C01A524103090F
:101C90008B4201D30B01C01A5241C3088B4201D3BE
:101CA000CB00C01A524183088B4201D38B00C01A6B
:101CB000524143088B4201D34B00C01A5241411A92
:101CC00000D20146524110467047FFE701B500209F
:101CD00000F006F802BDC0460029F7D076E770474D
:101CE0007047C046F0B5CE46474615042D0C2E0071
:101CF00080B50704140C3F0C9946030C7E435D43EA
:101D0000674363437F19340CE4199C46A54203D909
:101D100080235B029846C4444B46514343433604F8
:101D2000360C250C24046544A419591849192000BF
:101D30000CBC90469946F0BD70B500260C4D0D4C7C
:101D4000641BA410A64209D1002601F00FF90A4D28
:101D50000A4C641BA410A64205D170BDB300EB5819
:101D600098470136EEE7B300EB5898470136F2E7A3
:101D7000782F0000782F0000782F00007C2F0000C3
:101D800003008218934200D1704719700133F9E7BC
:101D90000FB40B4B13B51C68002C05D0A369002BA6
:101DA00002D1200000F0F2FA05AB049AA1682000ED
:101DB000019300F0C1FC16BC08BC04B01847C04633
:101DC0001800002070B505000E00002804D08369BB
:101DD000002B01D100F0DAFAAB69AC68002B02D11C
:101DE000280000F0D3FA244B9C420FD16C68A389E1
:101DF0001B0702D52369002B20D12100280000F009
:101E000057F900281AD00120404270BD1B4B9C425C
:101E100001D1AC68EBE71A4B9C42E8D1EC68E6E7ED
:101E2000013B0136A360002B04DAA269934216DB62
:101E30000A2914D023685A1C226019703178A368CB
:101E40000029EDD1013BA360002B0FDA22000A31FB
:101E5000280000F0D7F8431CD5D00A20D5E722008F
:101E6000280000F0CFF8431CE8D1CCE70A20236813
:101E70005A1C22601870C8E7F82E0000182F0000C6
:101E8000D82E000010B5034B01001868FFF79AFF29
:101E900010BDC046180000204A424A41802310B5B8
:101EA0005200DB0000F002F810BD0000F0B51D008C
:101EB0004F4B85B01E6804000F000092002E05D025
:101EC000B369002B02D1300000F060FA494B9C420C
:101ED00050D17468009B022B05D0012B00D984E0FF
:101EE000002D00DA81E02100300000F0E1F9616BA3
:101EF000002908D023004433994202D0300000F07A
:101F00004BFB002363630023A3616360A3891B066B
:101F100003D52169300000F03FFBA389364A134006
:101F2000A381009B022B5AD003AB02AA21003000F0
:101F300000F0C2FAA3891843A081002D24D1029D8C
:101F4000280000F01FFB0195071E42D1029B019360
:101F5000AB4239D1012040420223A2891343A3811D
:101F60000023A360230047332360236101236361BF
:101F700005B0F0BD214B9C4201D1B468AAE7204BCB
:101F80009C42A7D1F468A5E7002FD9D0B369002BF4
:101F900002D1300000F0FAF9009B012B03D1A38994
:101FA000009A1A43A2810820A389276027616561EE
:101FB000184018D0012018400023984211D06D42DB
:101FC000A360A5611800D3E7019800F0DBFA071EB3
:101FD000C0D08023A289019D1343A381D6E70020AE
:101FE000BAE7A560C4E7A060C2E701204042BFE7AE
:101FF00018000020F82E00005CF3FFFF182F0000EF
:10200000D82E0000F8B505000E001400002804D0FA
:102010008369002B01D100F0B9F9224B9C422DD1EC
:102020006C68A369A360A3891B0731D52369002BC2
:102030002ED023682269F7B2981A6369F6B29842E3
:1020400005DB2100280000F033F9002826D1A36821
:102050000130013BA36023685A1C22601F70636932
:10206000984204D0A389DB071AD50A2E18D1210083
:10207000280000F01DF9002812D00FE00A4B9C4206
:1020800001D1AC68CDE7094B9C42CAD1EC68C8E7E6
:102090002100280000F00CF80028CAD00126764262
:1020A0003000F8BDF82E0000182F0000D82E0000D8
:1020B000364B70B51D6806000C00002D05D0AB69CD
:1020C000002B02D1280000F061F9314B9C420FD166
:1020D0006C680C23E25E93B219072DD4D90611D493
:1020E00009230120336037331343A381404270BD7D
:1020F000284B9C4201D1AC68EBE7274B9C42E8D1CE
:10210000EC68E6E75B0713D5616B002908D0230074
:102110004433994202D0300000F03EFA002363635A
:102120002422A3899343A38100236360236923604E
:102130000823A2891343A3812369002B0BD1A0217B
:102140008022A389890092000B40934203D0210092
:10215000300000F0D9F90123A289134011D00023E7
:10216000A36063695B42A361002023698342BED1FF
:102170000C23E25E1306BAD540231343A381013832
:10218000B5E7920700D46369A360EDE7180000206B
:10219000F82E0000182F0000D82E0000F7B58A890D
:1021A00005000C00130760D44B68002B04DC0B6C9B
:1021B000002B01DC0020FEBDE76A002FFAD00023CF
:1021C0002E682B6080235B011A4034D0606DA38998
:1021D0005B0706D56368C01A636B002B01D0236CC4
:1021E000C01A0200216A00232800E76AB847A189C3
:1021F000431C06D12B681D2B31D82C4ADA40D3075B
:102200002DD50023636023692360CB0405D5431CCF
:1022100002D12B68002B00D16065616B2E60002914
:10222000C8D023004433994202D0280000F0B4F90A
:1022300000206063BFE70123216A2800B847431CE0
:10224000C5D12B68002BC2D01D2B01D0162B01D17C
:102250002E60AFE74023A2891343A381ABE740235D
:102260000B430120A3814042A5E70F69002FA1D0B5
:102270000B680F60DB1B01930023920700D14B69B1
:10228000A360019B002B00DC94E7019B3A00216ACC
:102290002800A66AB047002803DC4023A289134324
:1022A000DFE7019B3F181B1A0193EAE7010040207A
:1022B0000B6970B505000C00002B01D1002070BD2A
:1022C000002804D08369002B01D100F05FF80B4B8C
:1022D0009C4209D16C680C22A35E002BEED0210039
:1022E0002800FFF75BFFEAE7054B9C4201D1AC6891
:1022F000F1E7044B9C42EED1EC68ECE7F82E0000CD
:10230000182F0000D82E000010B5024900F0B2F8D6
:1023100010BDC046B1220000002310B504000360C8
:102320004360836081814366C2810361436183614D
:10233000190008225C30FFF723FD054B246263621D
:10234000044BA362044BE362044B236310BDC046FD
:10235000A52C0000CD2C0000052D0000312D000023
:1023600070B568254A1E55430E002900743100F0EF
:102370005DF9041E08D000212A00016046600C307F
:10238000A0606832FFF7FCFC200070BD836913B5C4
:102390000400002B28D18364C3640365134B144AE3
:1023A0001B6882620193984201D10123836120005E
:1023B00000F020F86060200000F01CF8A060200011
:1023C00000F018F80022E06004216068FFF7A4FF25
:1023D00001220921A068FFF79FFF02221221E06875
:1023E000FFF79AFF0123A36113BDC046D42E00005E
:1023F00009230000F8B51E4B07001E68B369002BC7
:1024000002D13000FFF7C2FF4836B4687368013B61
:1024100004D53368002B07D03668F6E70C22A55E9A
:10242000002D0DD06834F2E704213800FFF798FF43
:1024300030600028F0D10C2304003B602000F8BD80
:10244000012320005B42E3810233A381656625609E
:10245000A560656025616561A561082229005C3081
:10246000FFF78EFC6563A563A564E564E6E7C046F7
:10247000D42E0000F7B5040007000026019148346F
:10248000002C01D13000FEBD6368A5680093009B5D
:10249000013B009301D52468F2E7AB89012B08D9F1
:1024A0000E22AB5E013304D029003800019B98470F
:1024B00006436835EBE7000070B50E001D000E23E3
:1024C000C95E90B01400002907DA00232B60B3899D
:1024D0001B0611D48023DB000FE001AA00F054FC9E
:1024E0000028F2DBF022029B12021340054A9B18DF
:1024F0005A4253412B60EDE740230020236010B087
:1025000070BDC04600E0FFFFF7B502268B890500CD
:102510000C00334206D0230047332360236101239C
:102520006361F7BD01AB6A46FFF7C6FF009907007C
:10253000280000F07BF8002806D10C22A35E9A0543
:10254000EFD41E43A681E6E70D4BAB628023A28940
:1025500020601343A381009B20616361019B002BDA
:102560000AD00E23E15E280000F020FC002803D0F2
:102570000123A2891343A381A0893843A081D0E716
:102580000923000010B5034B0100186800F04EF855
:1025900010BDC0461800002070B50500002910D0FD
:1025A0000C1F2368002B00DAE418280000F02FFC31
:1025B0001D4A1368002B05D163601460280000F0E9
:1025C00027FC70BDA34209D9216860188342F3D16A
:1025D00018685B6841182160EEE713005A68002A0A
:1025E00001D0A242F9D919685818A0420BD120682D
:1025F0000918581819608242E0D1106852684118D1
:1026000019605A60DAE7A04202D90C232B60D5E7A3
:1026100021686018824203D1106852684118216015
:1026200062605C60CAE7C046A0010020032370B569
:10263000CD1C9D43083506000C2D1ED20C25A94249
:102640001DD8300000F0E3FB254A14682100002962
:1026500019D1244C2368002B03D1300000F010FB6B
:1026600020602900300000F00BFB431C2CD10C2310
:102670003000336000F0CCFB03E0002DDFDA0C23E8
:102680003360002070BD0B685B1B1AD40B2B03D981
:102690000B60CC18256003E08C420ED16368136098
:1026A000300000F0B5FB200007220B30231D9043C3
:1026B000C31AE7D05A42E250E4E74B6863600C006B
:1026C000EEE70C004968C2E70323C41C9C43A04208
:1026D000E0D0211A300000F0D3FA431CDAD1C6E76B
:1026E000A0010020A4010020936810B5013B936075
:1026F000002B05DA9469A34208DBCBB20A2B05D084
:102700001368581C10601970C8B210BDFFF77AFC2E
:10271000FBE7F8B506000F001400D518AC4201D154
:10272000002007E021783A003000FFF7DDFF013498
:10273000431CF3D1F8BD0000F0B59FB006000F00B8
:1027400014000593002804D08369002B01D1FFF702
:102750001DFE7F4B9F425CD17768BB891B0762D50A
:102760003B69002B5FD0002306AD6B6120336B7695
:102770001033AB760294029C2378002B5DD1029B30
:10278000E31A04930DD0049B029A39003000FFF73E
:10279000C0FF431C00D1CCE06A69049B94466344AB
:1027A0006B612378002B00D1C3E001220023524249
:1027B0006A6002A95432521801342B60EB60AB609E
:1027C0001370AB6521780522624800F015FB631C8D
:1027D0009C46002835D12968CB0604D5532302AA8C
:1027E00020309B1818700B0704D553232B2002AA06
:1027F0009B18187023782A2B2CD000200A21099BC3
:102800002278303A092A00D86BE000282AD00993B0
:1028100028E0514B9F4201D1B7689EE74F4B9F4242
:102820009BD1F76899E739003000FFF741FC002899
:1028300099D0012040421FB0F0BD252B9FD001341C
:102840009AE7444B2968C01A012383400B432B604D
:102850006446B7E7059B181D1B680590002B3ADB03
:102860000993644623782E2B0BD16378621C2A2BA4
:102870003FD1059B02341A1D1B680592002B35DBE6
:10288000079321780322364800F0B6FA002807D0D3
:10289000334B2A68C01A4023834013432B60013412
:1028A0002178631C06222F480293297600F0A4FAAF
:1028B000002844D02C4B002B2FD12968059B0722E0
:1028C000C90528D59B189343083305936B69039A70
:1028D0009B186B614FE75B42EB6002230B432B605D
:1028E000BFE74B4301349B18012089E701235B427A
:1028F000C6E7002314000A201A006B6021783039E3
:10290000092903D9002BBCD00792BAE7424301340E
:1029100052180123F2E70733D5E705AB00933A00DD
:10292000124B2900300000E000BF0390039B0133ED
:10293000CCD1BB895B0600D57BE70B987BE705AB69
:1029400000933A00094B2900300000F07FF8ECE7D3
:10295000F82E0000382F0000182F0000D82E00009D
:102960003E2F0000422F000000000000132700004F
:10297000F7B5150001938A680B6900900C0093422B
:1029800000DA130022002B6043321278002A01D0B3
:1029900001332B6023689B0602D52B6802332B6022
:1029A000062723681F4027D0230043331B785A1E75
:1029B00093412268920630D4220001994332009854
:1029C000089EB047431C25D0062320682A68E1688A
:1029D00003400025042B03D18D1AEB43DB171D4068
:1029E000A3682269934201DD9B1AED180027BD42BE
:1029F00020D1002010E00137E3682A689B1A9F422B
:102A0000D2DA22000123193201990098089EB047BA
:102A1000431CF0D101204042FEBD3020E11843317B
:102A2000087021005A1C45310978A218433202333C
:102A30001170C1E7220001231A3201990098089E03
:102A4000B047431CE6D00137D1E70000F0B58BB0AA
:102A500006920A0043320793059004920A7E0C0006
:102A6000109B6E2A00D18FE017D8632A2CD008D88B
:102A7000002A00D199E0582A54D0260042363270FC
:102A800029E0642A01D0692AF7D121681A6808066A
:102A900023D5111D1960156825E0732A00D188E03F
:102AA00008D86F2A29D0702AE7D1202209680A4362
:102AB000226003E0752A20D0782ADED12200782116
:102AC000453211706C4A30E00E001A684236111D12
:102AD000196013683370012379E04906D9D5111DB7
:102AE00019600023D55E002D03DA2D23049A6D4270
:102AF0001370624B0A2703932FE0206819680506BC
:102B000003D5081D18600D6805E04006F9D50D686D
:102B1000081D1860ADB2594B082703936F2A18D0CF
:102B20000A2716E045310A70544A03921A68216850
:102B3000101D18601568080622D5CB0702D5202382
:102B4000194321601027002D03D1202322689A43C6
:102B500022602300002243331A706368A360002BB5
:102B60005CDB0422216891432160002D58D1049E32
:102B7000002B64D02600039B42361B7833705EE046
:102B80004806DAD5ADB2D8E709681A68080605D54F
:102B9000111D1960136862691A6006E04906F7D5CD
:102BA000111D19601368A28A1A800023049E2361F4
:102BB00054E01A68111D196016680021626830001F
:102BC00000F01AF9002801D0801B6060636823615F
:102BD0000023049A137041E0236932000699059896
:102BE000079DA847431C43D0236800259B070FD4AB
:102BF000099BE06898423DDA18003BE0220001237F
:102C0000193206990598079EB047431C30D001350C
:102C1000E368099A9B1A9D42F0DBE9E7002DA9D0F1
:102C2000049E28003900FFF757F8039B013E5B5CC8
:102C3000280033703900FEF7C9FF051EF1D1082FB7
:102C400009D12368DB0706D563682269934202DC59
:102C50003023013E3370049B9B1B2361079B09AA11
:102C600000932100069B0598FFF782FE431CB3D119
:102C7000012040420BB0F0BD5A2F0000492F000048
:102C8000002370B5064C050008002360FEF79AFD8E
:102C9000431C03D12368002B00D02B6070BDC046BD
:102CA000FC01002070B50C000E25495F00F0B2F861
:102CB000002803DB636D1B18636570BDA389024A9E
:102CC0001340A381F9E7C046FFEFFFFFF8B51F00EF
:102CD0008B8905000C001600DB0505D50E23C95EA7
:102CE0000022022300F074F8A389054A280013404B
:102CF000A38132000E23E15E3B0000F01FF8F8BD17
:102D0000FFEFFFFF70B50C000E25495F00F060F883
:102D1000A389421C03D1054A1340A38170BD8022C0
:102D200052011343A3816065F8E7C046FFEFFFFF40
:102D300010B50E23C95E00F015F810BD70B5050082
:102D4000080011000022064C22601A00FEF712FD56
:102D5000431C03D12368002B00D02B6070BDC046FC
:102D6000FC010020002370B5064C0500080023601C
:102D7000FEF73AFD431C03D12368002B00D02B60E3
:102D800070BDC046FC010020002370B5064C050054
:102D9000080011002360FEF72AFD431C03D12368BD
:102DA000002B00D02B6070BDFC010020002370B50B
:102DB000064C050008002360FEF71EFD431C03D1EE
:102DC0002368002B00D02B6070BDC046FC010020A2
:102DD00070B50500080011000022064C22601A00A0
:102DE000FEF70CFD431C03D12368002B00D02B60A1
:102DF00070BDC046FC010020C9B28218904201D1CA
:102E00000020704703788B42FBD00130F6E7704713
:102E10007047000070B50500080011000022064C44
:102E200022601A00FEF784FC431C03D12368002BA8
:102E300000D02B6070BDC046FC01002001000000E6
:102E40000200000004000000080000000010000064
:102E50000020000000400000008000000000010091
:102E6000000002000000040000000800000400420E
:102E700000080042000C0042001000420014004212
:102E800000180042EA0F0000E60F0000E60F000005
:102E9000181000001810000002100000F00F0000D1
:102EA00008100000DC110000BC110000BC11000083
:102EB00012120000CE110000EA110000C011000043
:102EC000F81100005F25585F000000000A000000B4
:102ED000255820001C000020000000000000000019
:102EE00000000000000000000000000000000000E2
:102EF00000000000000000000000000000000000D2
:102F000000000000000000000000000000000000C1
:102F100000000000000000000000000000000000B1
:102F200000000000000000000000000000000000A1
:102F30000000000000000000232D302B2000686CF2
:102F40004C006566674546470030313233343536CC
:102F50003738394142434445460030313233343505
:102F6000363738396162636465660000F8B5C0467B
:102F7000F8BC08BC9E467047E5000000F8B5C046A6
:0C2F8000F8BC08BC9E467047BD00000075
:102F8C00000000000C000000000000000000000029
:102F9C0000000000010000001C00002000000000E8
:102FAC00F82E0000182F0000D82E000000000000A2
:102FBC000000000000000000000000000000000005
:102FCC0000000000000000000000000000000000F5
:102FDC0000000000000000000000000000000000E5
:102FEC0000000000000000000000000000000000D5
:0C2FFC00000000000000000000000000C9
:04000003000016A93A
:00000001FF
